:1000000009C00EC00EC00CC00BC00AC009C008C099
:1000100007C006C011241FBECFE9CDBF2CD048C0F9
:10002000EFCF1F920F920FB60F9211242F938F9341
:100030009F93F894B09916C0C29AC39A8FE393E83D
:100040000197F1F700C00000C3989FEF25EA8EE00A
:10005000915020408040E1F700C00000C2988AB76C
:1000600080668ABF78949F918F912F910F900FBED9
:100070000F901F901895BA9AC298BB9AC398B898D7
:10008000C09AB998C19A81E085BB82E085BF80E2C1
:100090008BBF789488B394E0892788BB2FEF8BE4DB
:1000A0009DE1215080409040E1F700C00000F2CF78
:0400B000F894FFCFF2
:00000001FF
