:1000000009C021C045C01FC01EC01DC01CC01BC0F0
:100010007AC019C011241FBECFE9CDBF10E0A0E601
:10002000B0E0E0EDF2E002C005900D92A239B10718
:10003000D9F720E0A2E9B0E001C01D92A639B207CD
:10004000E1F76BD043C1DCCF0F931F93653071058F
:1000500081059105C0F0E0E6F0E050E040E020E0EE
:10006000E039F20769F00081118122813381601744
:1000700071078207930710F0548145813696EFCFC0
:10008000852F942F02C080E090E01F910F9108957A
:100090001F920F920FB60F9211242F933F938F93BD
:1000A0009F93EF93FF93F894B09921C0C29AC39A9B
:1000B00080E090E0209190003091910082179307AA
:1000C00040F4EFE5F9E03197F1F700C00000019648
:1000D000F1CFC398FFEF25EA8EE0F1502040804039
:1000E000E1F700C00000C2988AB780668ABF7894A2
:1000F000FF91EF919F918F913F912F910F900FBEA4
:100100000F901F9018951F920F920FB60F92112407
:100110000F900FBE0F901F901895F894BA9AC2983E
:10012000BB9AC398B898C09AB998C19ABC98C49819
:1001300082E287B983E886B981E085BB82E085BF2A
:1001400080E28BBF81B5886181BD81B5806381BD4F
:10015000A8957894C29A2FEF87E99AE321508040BE
:100160009040E1F700C00000C298A895369A88B385
:1001700094E0892788BBA8952FEF8BE49DE121505F
:1001800080409040E1F700C000003699FECF65B195
:1001900070E080E090E024EE3CE040E050E020D0D1
:1001A00049015A01892C9A2CAB2CBB2480929200D5
:1001B00090929300A0929400B0929500F894609170
:1001C00092007091930080919400909195003CDF93
:1001D00090939100809390007894C8CF6894001316
:1001E000E894A0E0B0E0E6EFF0E01DC0EFEFE7F943
:1001F00059016A015E23550FEE08FE2C87019B0111
:10020000AC019E23990F660B762FCB0131D0CDB771
:10021000DD27EAE01FC02F923F924F925F926F92CC
:100220007F928F929F92AF92BF92CF92DF92EF9286
:10023000FF920F931F93CF93DF93CDB7CA1BCDBF10
:10024000DD2709942A88398848885F846E847D84F4
:100250008C849B84AA84B984C884DF80EE80FD806E
:100260000C811B81AA81D981CE0FCDBFCA2F0895E1
:10027000DF93CF939F92A0E49A2E0024D001E00157
:10028000F00116950795F794E794D794C794B7941F
:10029000A79448F41068A20FB31FC41FD51FE61F10
:1002A000F71F081E191E220F331F441F551F661FFC
:1002B000771F881F991F9A9421F79D01AE01BF01F6
:1002C000C00111249F90CF91DF910895F894FFCF42
:1002D000000000002A00C30000002A0051020000B4
:1002E0002400980300001400690800001200C408EC
:1002F00000000E005E0900000A00E40C00000A0085
:020300000E00ED
:00000001FF
